:1000000002073E02000000000000000206E30000BC
:10001000000000020000000000000002084600008E
:0E0020000000000200000000000000020000CE
:10002E002104746B2526F8AA2574010A8002C333B5
:10003E00DAFCF96301FFAA01E65AF9A6017430252C
:10004E0026F8AA2574010A8002C333DAFCF963018B
:10005E00FFAA01E65AF9A6012120746B2526F8AAFB
:10006E002574010A8002C333DAFCF9AA01E64AF9C3
:10007E00A60174302526F8AA2574010A8002C3331E
:10008E00DAFCF96301FFAA01E65AF9A601212074F0
:10009E006B2526F8AA2574010A8002C333DAFCF90F
:1000AE006301FFAA01E65AF9A60174302526F8AAC3
:1000BE002574010A8002C333DAFCF9AA01E64AF973
:1000CE00A601804E746B2526F8AA2674010A8002BA
:1000DE00C333DAFCF9AA01E64AF9A60174302526E3
:1000EE00F8AA2674010A8002C333DAFCF9AA01E6E3
:1000FE004AF9A601801CE52770020130E52764014C
:10010E0070020168E52764027002019DE527640311
:03011E0060B222AA
:10012100852124D3E5249522500F85202585242679
:0A013100852327112E052480EA2201
:02013B000022A0
:10013D00751B00751D00751E00751F10C3E51E94FF
:10014D000450507580F0E51F64FFF580313B313B65
:10015D00E58044F0F885001C6300FF85001CE86015
:10016D001B851D1BE51C60117801E51C088002C371
:10017D0013D8FCF51C051B80EB751E047801E51FDB
:10018D00088002C333D8FCF51FE51D2404F51D05B9
:06019D001E80A9A81B2230
:1001A300750B00750C00750D00750E0043891075F5
:0B01B3008DFC758BBE43A888D28E2205
:0401BE007580FF2227
:1001C2007508017520077521007522077523013115
:0201D2002122E8
:1001D40075900075A00075B000438901758CF975A0
:0801E4008A7D43A882D28C221F
:0601EC007F03DFFE00228C
:1001F200751B00C3E51B94085012746B251BF8761F
:0D020200007430251BF87600051B80E722F4
:10020F00E5086401701375080275200775210075E4
:10021F00220775230231218017E5086402701175DA
:10022F0008017520077521007522077523013121FB
:01023F00229C
:10024000E518602D751900C3E51994045021790152
:10025000E519098002C333D9FCF8743928F88625DA
:1002600008E62401F526850827112E051980D88077
:100270002B751900C3E519940450217901E519097A
:100280008002C333D9FCF8743928F8862508E6249F
:0D02900001F526752700112E051980D822D2
:08029D00E493F608A3D9F9224D
:1002A50075900075A00075B0008529A0852AB085D8
:0302B5002890226C
:0902B80031A331BE31D431C22260
:1002C100313D850018E580540FF9640F600431EC6D
:0502D10080F3A81822D3
:1002D600751800C3E51894065022751900C3E51970
:1002E600940750148518F07407A4F8744128F8256B
:1002F60019F87600051980E5051880D7751800C32A
:10030600E51894045027751900C3E519940250198D
:100316007901E518098002C333D9FCF8743928F845
:100326002519F87600051980E0051880D231F231DA
:02033600C222E1
:10033800751905C374006480F8E51964809840470E
:100348008519F07407A4F8744128FAC3E5189401D4
:10035800F8E49400F9EA28F88601E970268519F08E
:100368007407A4F8744128FAC3E5189401F8E494D2
:1003780000F9EA28F8A60885190AC3E5189401F5D2
:10038800098004151980AC751A00C3E5196480F852
:10039800E51A6480985023851A258518268508272C
:1003A800112E7EA37F1EDFFEDEFC00851A25851830
:1003B80026752700112E051A80D0C374006480F8B2
:1003C800E519648098400E85192585182685082723
:0803D800112E780122780022A9
:0903E000A80BA90CAA0DAB0E221A
:1003E90075180085091AC374006480F8E51A6480D9
:1003F90098404D850AF07407A4F8744128F8251A25
:10040900F88601E9650870327901E518098002C3A7
:1004190033D9FCF8743928F8A60A7901E518098056
:1004290002C333D9FCF8743928F808A61A0518E567
:10043900186404700378012280028004151A80A6CA
:10044900E5092401F51AC374076480F8E51A648084
:1004590098504D850AF07407A4F8744128F8251AB4
:10046900F88601E9650870327901E518098002C347
:1004790033D9FCF8743928F8A60A7901E5180980F6
:1004890002C333D9FCF8743928F808A61A0518E507
:10049900186404700378012280028004051A80A67A
:1004A900751800850A1985091AC374066480F8E568
:1004B900196480984002A11DC374006480F8E51A8C
:1004C900648098404F8519F07407A4F8744128F89E
:1004D900251AF88601E9650870327901E51809805D
:1004E90002C333D9FCF8743928F8A6197901E5183B
:1004F900098002C333D9FCF8743928F808A61A050B
:1005090018E5186404700378012280028006051931
:10051900151A81B2C3E50A9401F519E5092401F513
:100529001AC374006480F8E5196480985002A19593
:10053900C374076480F8E51A648098504F8519F0F0
:100549007407A4F8744128F8251AF88601E96508A2
:1005590070327901E518098002C333D9FCF874397E
:1005690028F8A6197901E518098002C333D9FCF8DE
:10057900743928F808A61A0518E518640470037870
:100589000122800280061519051AA12A751800850D
:100599000A1985091AC374006480F8E519648098FA
:1005A9005002C109C374006480F8E51A6480984058
:1005B9004F8519F07407A4F8744128F8251AF886AC
:1005C90001E9650870327901E518098002C333D958
:1005D900FCF8743928F8A6197901E518098002C3CD
:1005E90033D9FCF8743928F808A61A0518E51864EF
:1005F900047003780122800280061519151AA19E3C
:10060900E50A2401F519E5092401F51AC3740664FC
:1006190080F8E5196480984002C180C3740764803A
:10062900F8E51A648098504F8519F07407A4F87496
:100639004128F8251AF88601E9650870327901E53B
:1006490018098002C333D9FCF8743928F8A6197936
:1006590001E518098002C333D9FCF8743928F80870
:10066900A61A0518E518640470037801228002802F
:10067900060519051AC115751800850A19C37406E6
:100689006480F8E519648098504D8519F07407A4C1
:10069900F8744128F82509F88601E9650870327966
:1006A90001E518098002C333D9FCF8743928F8A682
:1006B900197901E518098002C333D9FCF87439287E
:1006C900F808A6090518E518640470037801228062
:0A06D900028004051980A6780022B3
:1006E300C000C001C002C0D0C0E0C0F0C082C0835F
:1006F300C28C758CF9758A7DE53824D0F9E4340809
:10070300FA850182850283E493F8850028746B25BA
:1007130038F8862974302538F8862A51A50538E536
:100723003864087003753800D28CD083D082D0F03F
:0B073300D0E0D0D0D002D001D00032C6
:10073E007581801208D951B851C1E824B7F8E43454
:10074E0008F9850082850183E493FA85020FEA6435
:10075E00446012C3E50F94314009D3E50F9437502E
:10076E0002800280D3E50F6444700451D6800CC31E
:10077E00E50F9430F5187138E860BDE50F644470EC
:10078E000302084171E9E8700302083E71E085003A
:10079E001085011185021285031371E08500148501
:1007AE000115850216850317C3E89510FCE995110E
:1007BE00FDEA9512FEEB9513F507C3EC94F4ED9458
:1007CE0001EE9400E5079400500775180151408022
:1007DE003BC3E5149510F9E5159511FAE51695123A
:1007EE00FBE5179513FCC3E994E8EA9403EB940038
:1007FE00EC94005008751800120240800F1203E0AE
:10080E008500108501118502128503131202C1E8BD
:10081E0024B7F8E43408F9850082850183E493FA5D
:10082E0085020FEA644460030207A81202D6800311
:08083E0012020F02074680FEC2
:10084600C0D0C0E0C0F0C082C083C28E758DFC757A
:100856008BBE7401250BF50B7400350CF50C74007A
:10086600350DF50D7400350EF50ED28ED083D0827F
:07087600D0F0D0E0D0D03239
:1008D900783079087582C875830812029D7838794D
:1008E900017582D875830812029D7839793A758223
:0808F9007D75830812029D22A7
:08087D00000000000000000073
:100885000000000000000000000000000000000063
:100895000000000000000000000000000000000053
:0A08A5000000000000000000000049
:0808AF00000000000000000041
:1008B700003132334134353642373839432A302311
:0108C70044EC
:0808C800000000000000000028
:0808D000010204081020408021
:0108D800001F
:00000001FF
